{
  "_format": "hh-sol-artifact-1",
  "contractName": "Turing",
  "sourceName": "contracts/Turing.sol",
  "abi": [
    {
      "inputs": [],
      "stateMutability": "nonpayable",
      "type": "constructor"
    },
    {
      "inputs": [
        {
          "internalType": "address",
          "name": "spender",
          "type": "address"
        },
        {
          "internalType": "uint256",
          "name": "allowance",
          "type": "uint256"
        },
        {
          "internalType": "uint256",
          "name": "needed",
          "type": "uint256"
        }
      ],
      "name": "ERC20InsufficientAllowance",
      "type": "error"
    },
    {
      "inputs": [
        {
          "internalType": "address",
          "name": "sender",
          "type": "address"
        },
        {
          "internalType": "uint256",
          "name": "balance",
          "type": "uint256"
        },
        {
          "internalType": "uint256",
          "name": "needed",
          "type": "uint256"
        }
      ],
      "name": "ERC20InsufficientBalance",
      "type": "error"
    },
    {
      "inputs": [
        {
          "internalType": "address",
          "name": "approver",
          "type": "address"
        }
      ],
      "name": "ERC20InvalidApprover",
      "type": "error"
    },
    {
      "inputs": [
        {
          "internalType": "address",
          "name": "receiver",
          "type": "address"
        }
      ],
      "name": "ERC20InvalidReceiver",
      "type": "error"
    },
    {
      "inputs": [
        {
          "internalType": "address",
          "name": "sender",
          "type": "address"
        }
      ],
      "name": "ERC20InvalidSender",
      "type": "error"
    },
    {
      "inputs": [
        {
          "internalType": "address",
          "name": "spender",
          "type": "address"
        }
      ],
      "name": "ERC20InvalidSpender",
      "type": "error"
    },
    {
      "anonymous": false,
      "inputs": [
        {
          "indexed": true,
          "internalType": "address",
          "name": "owner",
          "type": "address"
        },
        {
          "indexed": true,
          "internalType": "address",
          "name": "spender",
          "type": "address"
        },
        {
          "indexed": false,
          "internalType": "uint256",
          "name": "value",
          "type": "uint256"
        }
      ],
      "name": "Approval",
      "type": "event"
    },
    {
      "anonymous": false,
      "inputs": [
        {
          "indexed": true,
          "internalType": "address",
          "name": "from",
          "type": "address"
        },
        {
          "indexed": true,
          "internalType": "address",
          "name": "to",
          "type": "address"
        },
        {
          "indexed": false,
          "internalType": "uint256",
          "name": "value",
          "type": "uint256"
        }
      ],
      "name": "Transfer",
      "type": "event"
    },
    {
      "inputs": [
        {
          "internalType": "string",
          "name": "codinome",
          "type": "string"
        },
        {
          "internalType": "address",
          "name": "userAddress",
          "type": "address"
        }
      ],
      "name": "addUser",
      "outputs": [],
      "stateMutability": "nonpayable",
      "type": "function"
    },
    {
      "inputs": [
        {
          "internalType": "address",
          "name": "owner",
          "type": "address"
        },
        {
          "internalType": "address",
          "name": "spender",
          "type": "address"
        }
      ],
      "name": "allowance",
      "outputs": [
        {
          "internalType": "uint256",
          "name": "",
          "type": "uint256"
        }
      ],
      "stateMutability": "view",
      "type": "function"
    },
    {
      "inputs": [
        {
          "internalType": "address",
          "name": "spender",
          "type": "address"
        },
        {
          "internalType": "uint256",
          "name": "value",
          "type": "uint256"
        }
      ],
      "name": "approve",
      "outputs": [
        {
          "internalType": "bool",
          "name": "",
          "type": "bool"
        }
      ],
      "stateMutability": "nonpayable",
      "type": "function"
    },
    {
      "inputs": [
        {
          "internalType": "address",
          "name": "account",
          "type": "address"
        }
      ],
      "name": "balanceOf",
      "outputs": [
        {
          "internalType": "uint256",
          "name": "",
          "type": "uint256"
        }
      ],
      "stateMutability": "view",
      "type": "function"
    },
    {
      "inputs": [],
      "name": "decimals",
      "outputs": [
        {
          "internalType": "uint8",
          "name": "",
          "type": "uint8"
        }
      ],
      "stateMutability": "view",
      "type": "function"
    },
    {
      "inputs": [
        {
          "internalType": "address",
          "name": "",
          "type": "address"
        }
      ],
      "name": "enderecoValido",
      "outputs": [
        {
          "internalType": "bool",
          "name": "",
          "type": "bool"
        }
      ],
      "stateMutability": "view",
      "type": "function"
    },
    {
      "inputs": [],
      "name": "isVotingOn",
      "outputs": [
        {
          "internalType": "bool",
          "name": "",
          "type": "bool"
        }
      ],
      "stateMutability": "view",
      "type": "function"
    },
    {
      "inputs": [
        {
          "internalType": "string",
          "name": "codinome",
          "type": "string"
        },
        {
          "internalType": "uint256",
          "name": "quantidade",
          "type": "uint256"
        }
      ],
      "name": "issueToken",
      "outputs": [],
      "stateMutability": "nonpayable",
      "type": "function"
    },
    {
      "inputs": [],
      "name": "name",
      "outputs": [
        {
          "internalType": "string",
          "name": "",
          "type": "string"
        }
      ],
      "stateMutability": "view",
      "type": "function"
    },
    {
      "inputs": [
        {
          "internalType": "string",
          "name": "",
          "type": "string"
        }
      ],
      "name": "nomeParaEndereco",
      "outputs": [
        {
          "internalType": "address",
          "name": "",
          "type": "address"
        }
      ],
      "stateMutability": "view",
      "type": "function"
    },
    {
      "inputs": [],
      "name": "owner",
      "outputs": [
        {
          "internalType": "address",
          "name": "",
          "type": "address"
        }
      ],
      "stateMutability": "view",
      "type": "function"
    },
    {
      "inputs": [],
      "name": "professor",
      "outputs": [
        {
          "internalType": "address",
          "name": "",
          "type": "address"
        }
      ],
      "stateMutability": "view",
      "type": "function"
    },
    {
      "inputs": [],
      "name": "symbol",
      "outputs": [
        {
          "internalType": "string",
          "name": "",
          "type": "string"
        }
      ],
      "stateMutability": "view",
      "type": "function"
    },
    {
      "inputs": [],
      "name": "totalSupply",
      "outputs": [
        {
          "internalType": "uint256",
          "name": "",
          "type": "uint256"
        }
      ],
      "stateMutability": "view",
      "type": "function"
    },
    {
      "inputs": [
        {
          "internalType": "address",
          "name": "to",
          "type": "address"
        },
        {
          "internalType": "uint256",
          "name": "value",
          "type": "uint256"
        }
      ],
      "name": "transfer",
      "outputs": [
        {
          "internalType": "bool",
          "name": "",
          "type": "bool"
        }
      ],
      "stateMutability": "nonpayable",
      "type": "function"
    },
    {
      "inputs": [
        {
          "internalType": "address",
          "name": "from",
          "type": "address"
        },
        {
          "internalType": "address",
          "name": "to",
          "type": "address"
        },
        {
          "internalType": "uint256",
          "name": "value",
          "type": "uint256"
        }
      ],
      "name": "transferFrom",
      "outputs": [
        {
          "internalType": "bool",
          "name": "",
          "type": "bool"
        }
      ],
      "stateMutability": "nonpayable",
      "type": "function"
    },
    {
      "inputs": [
        {
          "internalType": "string",
          "name": "votedNome",
          "type": "string"
        },
        {
          "internalType": "uint256",
          "name": "amount",
          "type": "uint256"
        }
      ],
      "name": "vote",
      "outputs": [],
      "stateMutability": "nonpayable",
      "type": "function"
    },
    {
      "inputs": [
        {
          "internalType": "address",
          "name": "",
          "type": "address"
        },
        {
          "internalType": "string",
          "name": "",
          "type": "string"
        }
      ],
      "name": "votes",
      "outputs": [
        {
          "internalType": "bool",
          "name": "",
          "type": "bool"
        }
      ],
      "stateMutability": "view",
      "type": "function"
    },
    {
      "inputs": [],
      "name": "votingOff",
      "outputs": [],
      "stateMutability": "nonpayable",
      "type": "function"
    },
    {
      "inputs": [],
      "name": "votingOn",
      "outputs": [],
      "stateMutability": "nonpayable",
      "type": "function"
    }
  ],
  "bytecode": "0x608060405273cfc4422426b110c66eca4300622715fffc67cde6600560006101000a81548173ffffffffffffffffffffffffffffffffffffffff021916908373ffffffffffffffffffffffffffffffffffffffff16021790555073502542668af09fa7aea52174b9965a7799343df7600660006101000a81548173ffffffffffffffffffffffffffffffffffffffff021916908373ffffffffffffffffffffffffffffffffffffffff1602179055506001600660146101000a81548160ff021916908315150217905550348015620000d657600080fd5b506040518060400160405280600681526020017f547572696e6700000000000000000000000000000000000000000000000000008152506040518060400160405280600381526020017f54524e0000000000000000000000000000000000000000000000000000000000815250816003908162000154919062000d2c565b50806004908162000166919062000d2c565b5050507370997970c51812dc3a010c7d01b50e0d17dc79c860076040516200018e9062000e6e565b908152602001604051809103902060006101000a81548173ffffffffffffffffffffffffffffffffffffffff021916908373ffffffffffffffffffffffffffffffffffffffff160217905550733c44cdddb6a900fa2b585dd299e03d12fa4293bc6007604051620001ff9062000ed5565b908152602001604051809103902060006101000a81548173ffffffffffffffffffffffffffffffffffffffff021916908373ffffffffffffffffffffffffffffffffffffffff1602179055507390f79bf6eb2c4f870365e785982e1f101e93b9066007604051620002709062000f3c565b908152602001604051809103902060006101000a81548173ffffffffffffffffffffffffffffffffffffffff021916908373ffffffffffffffffffffffffffffffffffffffff1602179055507315d34aaf54267db7d7c367839aaf71a00a2c6a656007604051620002e19062000fa3565b908152602001604051809103902060006101000a81548173ffffffffffffffffffffffffffffffffffffffff021916908373ffffffffffffffffffffffffffffffffffffffff160217905550739965507d1a55bcc2695c58ba16fb37d819b0a4dc600760405162000352906200100a565b908152602001604051809103902060006101000a81548173ffffffffffffffffffffffffffffffffffffffff021916908373ffffffffffffffffffffffffffffffffffffffff16021790555073976ea74026e726554db657fa54763abd0c3a0aa96007604051620003c39062001071565b908152602001604051809103902060006101000a81548173ffffffffffffffffffffffffffffffffffffffff021916908373ffffffffffffffffffffffffffffffffffffffff1602179055507314dc79964da2c08b23698b3d3cc7ca32193d995560076040516200043490620010d8565b908152602001604051809103902060006101000a81548173ffffffffffffffffffffffffffffffffffffffff021916908373ffffffffffffffffffffffffffffffffffffffff1602179055507323618e81e3f5cdf7f54c3d65f7fbc0abf5b21e8f6007604051620004a5906200113f565b908152602001604051809103902060006101000a81548173ffffffffffffffffffffffffffffffffffffffff021916908373ffffffffffffffffffffffffffffffffffffffff16021790555073a0ee7a142d267c1f36714e4a8f75612f20a7972060076040516200051690620011a6565b908152602001604051809103902060006101000a81548173ffffffffffffffffffffffffffffffffffffffff021916908373ffffffffffffffffffffffffffffffffffffffff16021790555073bcd4042de499d14e55001ccbb24a551f3b954096600760405162000587906200120d565b908152602001604051809103902060006101000a81548173ffffffffffffffffffffffffffffffffffffffff021916908373ffffffffffffffffffffffffffffffffffffffff1602179055507371be63f3384f5fb98995898a86b02fb2426c57886007604051620005f89062001274565b908152602001604051809103902060006101000a81548173ffffffffffffffffffffffffffffffffffffffff021916908373ffffffffffffffffffffffffffffffffffffffff16021790555073fabb0ac9d68b0b445fb7357272ff202c5651694a60076040516200066990620012db565b908152602001604051809103902060006101000a81548173ffffffffffffffffffffffffffffffffffffffff021916908373ffffffffffffffffffffffffffffffffffffffff160217905550731cbd3b2770909d4e10f157cabc84c7264073c9ec6007604051620006da9062001342565b908152602001604051809103902060006101000a81548173ffffffffffffffffffffffffffffffffffffffff021916908373ffffffffffffffffffffffffffffffffffffffff16021790555073df3e18d64bc6a983f673ab319ccae4f1a57c709760076040516200074b90620013a9565b908152602001604051809103902060006101000a81548173ffffffffffffffffffffffffffffffffffffffff021916908373ffffffffffffffffffffffffffffffffffffffff16021790555073cd3b766ccdd6ae721141f452c550ca635964ce716007604051620007bc9062001410565b908152602001604051809103902060006101000a81548173ffffffffffffffffffffffffffffffffffffffff021916908373ffffffffffffffffffffffffffffffffffffffff160217905550732546bcd3c84621e976d8185a91a922ae77ecec3060076040516200082d9062001477565b908152602001604051809103902060006101000a81548173ffffffffffffffffffffffffffffffffffffffff021916908373ffffffffffffffffffffffffffffffffffffffff16021790555073bda5747bfd65f08deb54cb465eb87d40e51b197e60076040516200089e90620014de565b908152602001604051809103902060006101000a81548173ffffffffffffffffffffffffffffffffffffffff021916908373ffffffffffffffffffffffffffffffffffffffff16021790555073dd2fd4581271e230360230f9337d5c0430bf44c060076040516200090f9062001545565b908152602001604051809103902060006101000a81548173ffffffffffffffffffffffffffffffffffffffff021916908373ffffffffffffffffffffffffffffffffffffffff160217905550738626f6940e2eb28930efb4cef49b2d1f2c9c119960076040516200098090620015ac565b908152602001604051809103902060006101000a81548173ffffffffffffffffffffffffffffffffffffffff021916908373ffffffffffffffffffffffffffffffffffffffff1602179055506000600190505b6013811162000aab57600160086000600784604051602001620009f7919062001638565b60405160208183030381529060405260405162000a159190620016c5565b908152602001604051809103902060009054906101000a900473ffffffffffffffffffffffffffffffffffffffff1673ffffffffffffffffffffffffffffffffffffffff1673ffffffffffffffffffffffffffffffffffffffff16815260200190815260200160002060006101000a81548160ff021916908315150217905550808062000aa2906200170d565b915050620009d3565b506200175a565b600081519050919050565b7f4e487b7100000000000000000000000000000000000000000000000000000000600052604160045260246000fd5b7f4e487b7100000000000000000000000000000000000000000000000000000000600052602260045260246000fd5b6000600282049050600182168062000b3457607f821691505b60208210810362000b4a5762000b4962000aec565b5b50919050565b60008190508160005260206000209050919050565b60006020601f8301049050919050565b600082821b905092915050565b60006008830262000bb47fffffffffffffffffffffffffffffffffffffffffffffffffffffffffffffffff8262000b75565b62000bc0868362000b75565b95508019841693508086168417925050509392505050565b6000819050919050565b6000819050919050565b600062000c0d62000c0762000c018462000bd8565b62000be2565b62000bd8565b9050919050565b6000819050919050565b62000c298362000bec565b62000c4162000c388262000c14565b84845462000b82565b825550505050565b600090565b62000c5862000c49565b62000c6581848462000c1e565b505050565b5b8181101562000c8d5762000c8160008262000c4e565b60018101905062000c6b565b5050565b601f82111562000cdc5762000ca68162000b50565b62000cb18462000b65565b8101602085101562000cc1578190505b62000cd962000cd08562000b65565b83018262000c6a565b50505b505050565b600082821c905092915050565b600062000d016000198460080262000ce1565b1980831691505092915050565b600062000d1c838362000cee565b9150826002028217905092915050565b62000d378262000ab2565b67ffffffffffffffff81111562000d535762000d5262000abd565b5b62000d5f825462000b1b565b62000d6c82828562000c91565b600060209050601f83116001811462000da4576000841562000d8f578287015190505b62000d9b858262000d0e565b86555062000e0b565b601f19841662000db48662000b50565b60005b8281101562000dde5784890151825560018201915060208501945060208101905062000db7565b8683101562000dfe578489015162000dfa601f89168262000cee565b8355505b6001600288020188555050505b505050505050565b600081905092915050565b7f6e6f6d6531000000000000000000000000000000000000000000000000000000600082015250565b600062000e5660058362000e13565b915062000e638262000e1e565b600582019050919050565b600062000e7b8262000e47565b9150819050919050565b7f6e6f6d6532000000000000000000000000000000000000000000000000000000600082015250565b600062000ebd60058362000e13565b915062000eca8262000e85565b600582019050919050565b600062000ee28262000eae565b9150819050919050565b7f6e6f6d6533000000000000000000000000000000000000000000000000000000600082015250565b600062000f2460058362000e13565b915062000f318262000eec565b600582019050919050565b600062000f498262000f15565b9150819050919050565b7f6e6f6d6534000000000000000000000000000000000000000000000000000000600082015250565b600062000f8b60058362000e13565b915062000f988262000f53565b600582019050919050565b600062000fb08262000f7c565b9150819050919050565b7f6e6f6d6535000000000000000000000000000000000000000000000000000000600082015250565b600062000ff260058362000e13565b915062000fff8262000fba565b600582019050919050565b6000620010178262000fe3565b9150819050919050565b7f6e6f6d6536000000000000000000000000000000000000000000000000000000600082015250565b60006200105960058362000e13565b9150620010668262001021565b600582019050919050565b60006200107e826200104a565b9150819050919050565b7f6e6f6d6537000000000000000000000000000000000000000000000000000000600082015250565b6000620010c060058362000e13565b9150620010cd8262001088565b600582019050919050565b6000620010e582620010b1565b9150819050919050565b7f6e6f6d6538000000000000000000000000000000000000000000000000000000600082015250565b60006200112760058362000e13565b91506200113482620010ef565b600582019050919050565b60006200114c8262001118565b9150819050919050565b7f6e6f6d6539000000000000000000000000000000000000000000000000000000600082015250565b60006200118e60058362000e13565b91506200119b8262001156565b600582019050919050565b6000620011b3826200117f565b9150819050919050565b7f6e6f6d6531300000000000000000000000000000000000000000000000000000600082015250565b6000620011f560068362000e13565b91506200120282620011bd565b600682019050919050565b60006200121a82620011e6565b9150819050919050565b7f6e6f6d6531310000000000000000000000000000000000000000000000000000600082015250565b60006200125c60068362000e13565b9150620012698262001224565b600682019050919050565b600062001281826200124d565b9150819050919050565b7f6e6f6d6531320000000000000000000000000000000000000000000000000000600082015250565b6000620012c360068362000e13565b9150620012d0826200128b565b600682019050919050565b6000620012e882620012b4565b9150819050919050565b7f6e6f6d6531330000000000000000000000000000000000000000000000000000600082015250565b60006200132a60068362000e13565b91506200133782620012f2565b600682019050919050565b60006200134f826200131b565b9150819050919050565b7f6e6f6d6531340000000000000000000000000000000000000000000000000000600082015250565b60006200139160068362000e13565b91506200139e8262001359565b600682019050919050565b6000620013b68262001382565b9150819050919050565b7f6e6f6d6531350000000000000000000000000000000000000000000000000000600082015250565b6000620013f860068362000e13565b91506200140582620013c0565b600682019050919050565b60006200141d82620013e9565b9150819050919050565b7f6e6f6d6531360000000000000000000000000000000000000000000000000000600082015250565b60006200145f60068362000e13565b91506200146c8262001427565b600682019050919050565b6000620014848262001450565b9150819050919050565b7f6e6f6d6531370000000000000000000000000000000000000000000000000000600082015250565b6000620014c660068362000e13565b9150620014d3826200148e565b600682019050919050565b6000620014eb82620014b7565b9150819050919050565b7f6e6f6d6531380000000000000000000000000000000000000000000000000000600082015250565b60006200152d60068362000e13565b91506200153a82620014f5565b600682019050919050565b600062001552826200151e565b9150819050919050565b7f6e6f6d6531390000000000000000000000000000000000000000000000000000600082015250565b60006200159460068362000e13565b9150620015a1826200155c565b600682019050919050565b6000620015b98262001585565b9150819050919050565b7f6e6f6d6500000000000000000000000000000000000000000000000000000000600082015250565b6000620015fb60048362000e13565b91506200160882620015c3565b600482019050919050565b6000819050919050565b620016326200162c8262000bd8565b62001613565b82525050565b60006200164582620015ec565b91506200165382846200161d565b60208201915081905092915050565b60005b838110156200168257808201518184015260208101905062001665565b60008484015250505050565b60006200169b8262000ab2565b620016a7818562000e13565b9350620016b981856020860162001662565b80840191505092915050565b6000620016d382846200168e565b915081905092915050565b7f4e487b7100000000000000000000000000000000000000000000000000000000600052601160045260246000fd5b60006200171a8262000bd8565b91507fffffffffffffffffffffffffffffffffffffffffffffffffffffffffffffffff82036200174f576200174e620016de565b5b600182019050919050565b6124c4806200176a6000396000f3fe608060405234801561001057600080fd5b506004361061012c5760003560e01c8063864a0d0a116100ad578063a9059cbb11610071578063a9059cbb14610321578063b06060ed14610351578063c683e0f414610381578063d1817c2c1461039d578063dd62ed3e146103bb5761012c565b8063864a0d0a1461027d5780638da5cb5b1461029957806395d89b41146102b757806397a9408d146102d5578063a6385803146103055761012c565b8063313ce567116100f4578063313ce567146101d75780633de87871146101f55780635113940d1461022557806360a3ae061461024357806370a082311461024d5761012c565b806306fdde0314610131578063095ea7b31461014f57806318160ddd1461017f57806320949bb41461019d57806323b872dd146101a7575b600080fd5b6101396103eb565b6040516101469190611968565b60405180910390f35b61016960048036038101906101649190611a32565b61047d565b6040516101769190611a8d565b60405180910390f35b6101876104a0565b6040516101949190611ab7565b60405180910390f35b6101a56104aa565b005b6101c160048036038101906101bc9190611ad2565b6105af565b6040516101ce9190611a8d565b60405180910390f35b6101df6105de565b6040516101ec9190611b41565b60405180910390f35b61020f600480360381019061020a9190611c91565b6105e7565b60405161021c9190611a8d565b60405180910390f35b61022d61062c565b60405161023a9190611cfc565b60405180910390f35b61024b610652565b005b61026760048036038101906102629190611d17565b610757565b6040516102749190611ab7565b60405180910390f35b61029760048036038101906102929190611da4565b61079f565b005b6102a1610aee565b6040516102ae9190611cfc565b60405180910390f35b6102bf610b14565b6040516102cc9190611968565b60405180910390f35b6102ef60048036038101906102ea9190611d17565b610ba6565b6040516102fc9190611a8d565b60405180910390f35b61031f600480360381019061031a9190611e04565b610bc6565b005b61033b60048036038101906103369190611a32565b610fcb565b6040516103489190611a8d565b60405180910390f35b61036b60048036038101906103669190611e64565b610fee565b6040516103789190611cfc565b60405180910390f35b61039b60048036038101906103969190611e04565b611037565b005b6103a561121d565b6040516103b29190611a8d565b60405180910390f35b6103d560048036038101906103d09190611ead565b611230565b6040516103e29190611ab7565b60405180910390f35b6060600380546103fa90611f1c565b80601f016020809104026020016040519081016040528092919081815260200182805461042690611f1c565b80156104735780601f1061044857610100808354040283529160200191610473565b820191906000526020600020905b81548152906001019060200180831161045657829003601f168201915b5050505050905090565b6000806104886112b7565b90506104958185856112bf565b600191505092915050565b6000600254905090565b600560009054906101000a900473ffffffffffffffffffffffffffffffffffffffff1673ffffffffffffffffffffffffffffffffffffffff163373ffffffffffffffffffffffffffffffffffffffff1614806105535750600660009054906101000a900473ffffffffffffffffffffffffffffffffffffffff1673ffffffffffffffffffffffffffffffffffffffff163373ffffffffffffffffffffffffffffffffffffffff16145b610592576040517f08c379a000000000000000000000000000000000000000000000000000000000815260040161058990611fbf565b60405180910390fd5b6001600660146101000a81548160ff021916908315150217905550565b6000806105ba6112b7565b90506105c78582856112d1565b6105d2858585611366565b60019150509392505050565b60006012905090565b6009602052816000526040600020818051602081018201805184825260208301602085012081835280955050505050506000915091509054906101000a900460ff1681565b600660009054906101000a900473ffffffffffffffffffffffffffffffffffffffff1681565b600560009054906101000a900473ffffffffffffffffffffffffffffffffffffffff1673ffffffffffffffffffffffffffffffffffffffff163373ffffffffffffffffffffffffffffffffffffffff1614806106fb5750600660009054906101000a900473ffffffffffffffffffffffffffffffffffffffff1673ffffffffffffffffffffffffffffffffffffffff163373ffffffffffffffffffffffffffffffffffffffff16145b61073a576040517f08c379a000000000000000000000000000000000000000000000000000000000815260040161073190611fbf565b60405180910390fd5b6000600660146101000a81548160ff021916908315150217905550565b60008060008373ffffffffffffffffffffffffffffffffffffffff1673ffffffffffffffffffffffffffffffffffffffff168152602001908152602001600020549050919050565b600560009054906101000a900473ffffffffffffffffffffffffffffffffffffffff1673ffffffffffffffffffffffffffffffffffffffff163373ffffffffffffffffffffffffffffffffffffffff1614806108485750600660009054906101000a900473ffffffffffffffffffffffffffffffffffffffff1673ffffffffffffffffffffffffffffffffffffffff163373ffffffffffffffffffffffffffffffffffffffff16145b610887576040517f08c379a000000000000000000000000000000000000000000000000000000000815260040161087e90611fbf565b60405180910390fd5b600073ffffffffffffffffffffffffffffffffffffffff168173ffffffffffffffffffffffffffffffffffffffff16036108f6576040517f08c379a00000000000000000000000000000000000000000000000000000000081526004016108ed9061202b565b60405180910390fd5b600073ffffffffffffffffffffffffffffffffffffffff166007848460405161092092919061207b565b908152602001604051809103902060009054906101000a900473ffffffffffffffffffffffffffffffffffffffff1673ffffffffffffffffffffffffffffffffffffffff16146109a5576040517f08c379a000000000000000000000000000000000000000000000000000000000815260040161099c906120e0565b60405180910390fd5b600860008273ffffffffffffffffffffffffffffffffffffffff1673ffffffffffffffffffffffffffffffffffffffff16815260200190815260200160002060009054906101000a900460ff1615610a32576040517f08c379a0000000000000000000000000000000000000000000000000000000008152600401610a299061214c565b60405180910390fd5b8060078484604051610a4592919061207b565b908152602001604051809103902060006101000a81548173ffffffffffffffffffffffffffffffffffffffff021916908373ffffffffffffffffffffffffffffffffffffffff1602179055506001600860008373ffffffffffffffffffffffffffffffffffffffff1673ffffffffffffffffffffffffffffffffffffffff16815260200190815260200160002060006101000a81548160ff021916908315150217905550505050565b600560009054906101000a900473ffffffffffffffffffffffffffffffffffffffff1681565b606060048054610b2390611f1c565b80601f0160208091040260200160405190810160405280929190818152602001828054610b4f90611f1c565b8015610b9c5780601f10610b7157610100808354040283529160200191610b9c565b820191906000526020600020905b815481529060010190602001808311610b7f57829003601f168201915b5050505050905090565b60086020528060005260406000206000915054906101000a900460ff1681565b600860003373ffffffffffffffffffffffffffffffffffffffff1673ffffffffffffffffffffffffffffffffffffffff16815260200190815260200160002060009054906101000a900460ff16610c52576040517f08c379a0000000000000000000000000000000000000000000000000000000008152600401610c49906121b8565b60405180910390fd5b600660149054906101000a900460ff16610ca1576040517f08c379a0000000000000000000000000000000000000000000000000000000008152600401610c9890612224565b60405180910390fd5b600073ffffffffffffffffffffffffffffffffffffffff1660078484604051610ccb92919061207b565b908152602001604051809103902060009054906101000a900473ffffffffffffffffffffffffffffffffffffffff1673ffffffffffffffffffffffffffffffffffffffff1603610d50576040517f08c379a0000000000000000000000000000000000000000000000000000000008152600401610d4790612290565b60405180910390fd5b3373ffffffffffffffffffffffffffffffffffffffff1660078484604051610d7992919061207b565b908152602001604051809103902060009054906101000a900473ffffffffffffffffffffffffffffffffffffffff1673ffffffffffffffffffffffffffffffffffffffff1603610dfe576040517f08c379a0000000000000000000000000000000000000000000000000000000008152600401610df5906122fc565b60405180910390fd5b600960003373ffffffffffffffffffffffffffffffffffffffff1673ffffffffffffffffffffffffffffffffffffffff1681526020019081526020016000208383604051610e4d92919061207b565b908152602001604051809103902060009054906101000a900460ff1615610ea9576040517f08c379a0000000000000000000000000000000000000000000000000000000008152600401610ea090612368565b60405180910390fd5b671bc16d674ec80000811115610ef4576040517f08c379a0000000000000000000000000000000000000000000000000000000008152600401610eeb906123d4565b60405180910390fd5b6001600960003373ffffffffffffffffffffffffffffffffffffffff1673ffffffffffffffffffffffffffffffffffffffff1681526020019081526020016000208484604051610f4592919061207b565b908152602001604051809103902060006101000a81548160ff021916908315150217905550610fb460078484604051610f7f92919061207b565b908152602001604051809103902060009054906101000a900473ffffffffffffffffffffffffffffffffffffffff168261145a565b610fc6336702c68af0bb14000061145a565b505050565b600080610fd66112b7565b9050610fe3818585611366565b600191505092915050565b6007818051602081018201805184825260208301602085012081835280955050505050506000915054906101000a900473ffffffffffffffffffffffffffffffffffffffff1681565b600560009054906101000a900473ffffffffffffffffffffffffffffffffffffffff1673ffffffffffffffffffffffffffffffffffffffff163373ffffffffffffffffffffffffffffffffffffffff1614806110e05750600660009054906101000a900473ffffffffffffffffffffffffffffffffffffffff1673ffffffffffffffffffffffffffffffffffffffff163373ffffffffffffffffffffffffffffffffffffffff16145b61111f576040517f08c379a000000000000000000000000000000000000000000000000000000000815260040161111690611fbf565b60405180910390fd5b600073ffffffffffffffffffffffffffffffffffffffff166007848460405161114992919061207b565b908152602001604051809103902060009054906101000a900473ffffffffffffffffffffffffffffffffffffffff1673ffffffffffffffffffffffffffffffffffffffff16036111ce576040517f08c379a00000000000000000000000000000000000000000000000000000000081526004016111c590612290565b60405180910390fd5b611218600784846040516111e392919061207b565b908152602001604051809103902060009054906101000a900473ffffffffffffffffffffffffffffffffffffffff168261145a565b505050565b600660149054906101000a900460ff1681565b6000600160008473ffffffffffffffffffffffffffffffffffffffff1673ffffffffffffffffffffffffffffffffffffffff16815260200190815260200160002060008373ffffffffffffffffffffffffffffffffffffffff1673ffffffffffffffffffffffffffffffffffffffff16815260200190815260200160002054905092915050565b600033905090565b6112cc83838360016114dc565b505050565b60006112dd8484611230565b90507fffffffffffffffffffffffffffffffffffffffffffffffffffffffffffffffff8110156113605781811015611350578281836040517ffb8f41b2000000000000000000000000000000000000000000000000000000008152600401611347939291906123f4565b60405180910390fd5b61135f848484840360006114dc565b5b50505050565b600073ffffffffffffffffffffffffffffffffffffffff168373ffffffffffffffffffffffffffffffffffffffff16036113d85760006040517f96c6fd1e0000000000000000000000000000000000000000000000000000000081526004016113cf9190611cfc565b60405180910390fd5b600073ffffffffffffffffffffffffffffffffffffffff168273ffffffffffffffffffffffffffffffffffffffff160361144a5760006040517fec442f050000000000000000000000000000000000000000000000000000000081526004016114419190611cfc565b60405180910390fd5b6114558383836116b3565b505050565b600073ffffffffffffffffffffffffffffffffffffffff168273ffffffffffffffffffffffffffffffffffffffff16036114cc5760006040517fec442f050000000000000000000000000000000000000000000000000000000081526004016114c39190611cfc565b60405180910390fd5b6114d8600083836116b3565b5050565b600073ffffffffffffffffffffffffffffffffffffffff168473ffffffffffffffffffffffffffffffffffffffff160361154e5760006040517fe602df050000000000000000000000000000000000000000000000000000000081526004016115459190611cfc565b60405180910390fd5b600073ffffffffffffffffffffffffffffffffffffffff168373ffffffffffffffffffffffffffffffffffffffff16036115c05760006040517f94280d620000000000000000000000000000000000000000000000000000000081526004016115b79190611cfc565b60405180910390fd5b81600160008673ffffffffffffffffffffffffffffffffffffffff1673ffffffffffffffffffffffffffffffffffffffff16815260200190815260200160002060008573ffffffffffffffffffffffffffffffffffffffff1673ffffffffffffffffffffffffffffffffffffffff1681526020019081526020016000208190555080156116ad578273ffffffffffffffffffffffffffffffffffffffff168473ffffffffffffffffffffffffffffffffffffffff167f8c5be1e5ebec7d5bd14f71427d1e84f3dd0314c0f7b2291e5b200ac8c7c3b925846040516116a49190611ab7565b60405180910390a35b50505050565b600073ffffffffffffffffffffffffffffffffffffffff168373ffffffffffffffffffffffffffffffffffffffff16036117055780600260008282546116f9919061245a565b925050819055506117d8565b60008060008573ffffffffffffffffffffffffffffffffffffffff1673ffffffffffffffffffffffffffffffffffffffff16815260200190815260200160002054905081811015611791578381836040517fe450d38c000000000000000000000000000000000000000000000000000000008152600401611788939291906123f4565b60405180910390fd5b8181036000808673ffffffffffffffffffffffffffffffffffffffff1673ffffffffffffffffffffffffffffffffffffffff16815260200190815260200160002081905550505b600073ffffffffffffffffffffffffffffffffffffffff168273ffffffffffffffffffffffffffffffffffffffff1603611821578060026000828254039250508190555061186e565b806000808473ffffffffffffffffffffffffffffffffffffffff1673ffffffffffffffffffffffffffffffffffffffff168152602001908152602001600020600082825401925050819055505b8173ffffffffffffffffffffffffffffffffffffffff168373ffffffffffffffffffffffffffffffffffffffff167fddf252ad1be2c89b69c2b068fc378daa952ba7f163c4a11628f55a4df523b3ef836040516118cb9190611ab7565b60405180910390a3505050565b600081519050919050565b600082825260208201905092915050565b60005b838110156119125780820151818401526020810190506118f7565b60008484015250505050565b6000601f19601f8301169050919050565b600061193a826118d8565b61194481856118e3565b93506119548185602086016118f4565b61195d8161191e565b840191505092915050565b60006020820190508181036000830152611982818461192f565b905092915050565b6000604051905090565b600080fd5b600080fd5b600073ffffffffffffffffffffffffffffffffffffffff82169050919050565b60006119c98261199e565b9050919050565b6119d9816119be565b81146119e457600080fd5b50565b6000813590506119f6816119d0565b92915050565b6000819050919050565b611a0f816119fc565b8114611a1a57600080fd5b50565b600081359050611a2c81611a06565b92915050565b60008060408385031215611a4957611a48611994565b5b6000611a57858286016119e7565b9250506020611a6885828601611a1d565b9150509250929050565b60008115159050919050565b611a8781611a72565b82525050565b6000602082019050611aa26000830184611a7e565b92915050565b611ab1816119fc565b82525050565b6000602082019050611acc6000830184611aa8565b92915050565b600080600060608486031215611aeb57611aea611994565b5b6000611af9868287016119e7565b9350506020611b0a868287016119e7565b9250506040611b1b86828701611a1d565b9150509250925092565b600060ff82169050919050565b611b3b81611b25565b82525050565b6000602082019050611b566000830184611b32565b92915050565b600080fd5b600080fd5b7f4e487b7100000000000000000000000000000000000000000000000000000000600052604160045260246000fd5b611b9e8261191e565b810181811067ffffffffffffffff82111715611bbd57611bbc611b66565b5b80604052505050565b6000611bd061198a565b9050611bdc8282611b95565b919050565b600067ffffffffffffffff821115611bfc57611bfb611b66565b5b611c058261191e565b9050602081019050919050565b82818337600083830152505050565b6000611c34611c2f84611be1565b611bc6565b905082815260208101848484011115611c5057611c4f611b61565b5b611c5b848285611c12565b509392505050565b600082601f830112611c7857611c77611b5c565b5b8135611c88848260208601611c21565b91505092915050565b60008060408385031215611ca857611ca7611994565b5b6000611cb6858286016119e7565b925050602083013567ffffffffffffffff811115611cd757611cd6611999565b5b611ce385828601611c63565b9150509250929050565b611cf6816119be565b82525050565b6000602082019050611d116000830184611ced565b92915050565b600060208284031215611d2d57611d2c611994565b5b6000611d3b848285016119e7565b91505092915050565b600080fd5b600080fd5b60008083601f840112611d6457611d63611b5c565b5b8235905067ffffffffffffffff811115611d8157611d80611d44565b5b602083019150836001820283011115611d9d57611d9c611d49565b5b9250929050565b600080600060408486031215611dbd57611dbc611994565b5b600084013567ffffffffffffffff811115611ddb57611dda611999565b5b611de786828701611d4e565b93509350506020611dfa868287016119e7565b9150509250925092565b600080600060408486031215611e1d57611e1c611994565b5b600084013567ffffffffffffffff811115611e3b57611e3a611999565b5b611e4786828701611d4e565b93509350506020611e5a86828701611a1d565b9150509250925092565b600060208284031215611e7a57611e79611994565b5b600082013567ffffffffffffffff811115611e9857611e97611999565b5b611ea484828501611c63565b91505092915050565b60008060408385031215611ec457611ec3611994565b5b6000611ed2858286016119e7565b9250506020611ee3858286016119e7565b9150509250929050565b7f4e487b7100000000000000000000000000000000000000000000000000000000600052602260045260246000fd5b60006002820490506001821680611f3457607f821691505b602082108103611f4757611f46611eed565b5b50919050565b7f4170656e6173206f206f776e6572206f7520612070726f666573736f7261207060008201527f6f64656d20657865637574617200000000000000000000000000000000000000602082015250565b6000611fa9602d836118e3565b9150611fb482611f4d565b604082019050919050565b60006020820190508181036000830152611fd881611f9c565b9050919050565b7f456e64657265636f20696e76616c69646f000000000000000000000000000000600082015250565b60006120156011836118e3565b915061202082611fdf565b602082019050919050565b6000602082019050818103600083015261204481612008565b9050919050565b600081905092915050565b6000612062838561204b565b935061206f838584611c12565b82840190509392505050565b6000612088828486612056565b91508190509392505050565b7f4e6f6d65206a61206361646173747261646f0000000000000000000000000000600082015250565b60006120ca6012836118e3565b91506120d582612094565b602082019050919050565b600060208201905081810360008301526120f9816120bd565b9050919050565b7f456e64657265636f206a61206361646173747261646f00000000000000000000600082015250565b60006121366016836118e3565b915061214182612100565b602082019050919050565b6000602082019050818103600083015261216581612129565b9050919050565b7f5573756172696f206e616f206175746f72697a61646f00000000000000000000600082015250565b60006121a26016836118e3565b91506121ad8261216c565b602082019050919050565b600060208201905081810360008301526121d181612195565b9050919050565b7f566f746163616f204f6666000000000000000000000000000000000000000000600082015250565b600061220e600b836118e3565b9150612219826121d8565b602082019050919050565b6000602082019050818103600083015261223d81612201565b9050919050565b7f416c756e6f206e616f20656e636f6e747261646f000000000000000000000000600082015250565b600061227a6014836118e3565b915061228582612244565b602082019050919050565b600060208201905081810360008301526122a98161226d565b9050919050565b7f50726f696269646f20766f74617220656d207369206d65736d6f000000000000600082015250565b60006122e6601a836118e3565b91506122f1826122b0565b602082019050919050565b60006020820190508181036000830152612315816122d9565b9050919050565b7f4a6120766f746f75206e6573736520616c756e6f000000000000000000000000600082015250565b60006123526014836118e3565b915061235d8261231c565b602082019050919050565b6000602082019050818103600083015261238181612345565b9050919050565b7f4c696d697465206465207361547572696e6720756c7472617061737361646f00600082015250565b60006123be601f836118e3565b91506123c982612388565b602082019050919050565b600060208201905081810360008301526123ed816123b1565b9050919050565b60006060820190506124096000830186611ced565b6124166020830185611aa8565b6124236040830184611aa8565b949350505050565b7f4e487b7100000000000000000000000000000000000000000000000000000000600052601160045260246000fd5b6000612465826119fc565b9150612470836119fc565b92508282019050808211156124885761248761242b565b5b9291505056fea2646970667358221220287c0801bd70df53cfeb36be08375aa78099d7ae54835135699fe06e0358b2da64736f6c63430008140033",
  "linkReferences": {},
  "deployedLinkReferences": {}
}