{
  "_format": "hh-sol-artifact-1",
  "contractName": "Turing",
  "sourceName": "contracts/Turing.sol",
  "abi": [
    {
      "inputs": [],
      "stateMutability": "nonpayable",
      "type": "constructor"
    },
    {
      "inputs": [
        {
          "internalType": "address",
          "name": "spender",
          "type": "address"
        },
        {
          "internalType": "uint256",
          "name": "allowance",
          "type": "uint256"
        },
        {
          "internalType": "uint256",
          "name": "needed",
          "type": "uint256"
        }
      ],
      "name": "ERC20InsufficientAllowance",
      "type": "error"
    },
    {
      "inputs": [
        {
          "internalType": "address",
          "name": "sender",
          "type": "address"
        },
        {
          "internalType": "uint256",
          "name": "balance",
          "type": "uint256"
        },
        {
          "internalType": "uint256",
          "name": "needed",
          "type": "uint256"
        }
      ],
      "name": "ERC20InsufficientBalance",
      "type": "error"
    },
    {
      "inputs": [
        {
          "internalType": "address",
          "name": "approver",
          "type": "address"
        }
      ],
      "name": "ERC20InvalidApprover",
      "type": "error"
    },
    {
      "inputs": [
        {
          "internalType": "address",
          "name": "receiver",
          "type": "address"
        }
      ],
      "name": "ERC20InvalidReceiver",
      "type": "error"
    },
    {
      "inputs": [
        {
          "internalType": "address",
          "name": "sender",
          "type": "address"
        }
      ],
      "name": "ERC20InvalidSender",
      "type": "error"
    },
    {
      "inputs": [
        {
          "internalType": "address",
          "name": "spender",
          "type": "address"
        }
      ],
      "name": "ERC20InvalidSpender",
      "type": "error"
    },
    {
      "anonymous": false,
      "inputs": [
        {
          "indexed": true,
          "internalType": "address",
          "name": "owner",
          "type": "address"
        },
        {
          "indexed": true,
          "internalType": "address",
          "name": "spender",
          "type": "address"
        },
        {
          "indexed": false,
          "internalType": "uint256",
          "name": "value",
          "type": "uint256"
        }
      ],
      "name": "Approval",
      "type": "event"
    },
    {
      "anonymous": false,
      "inputs": [
        {
          "indexed": true,
          "internalType": "address",
          "name": "from",
          "type": "address"
        },
        {
          "indexed": true,
          "internalType": "address",
          "name": "to",
          "type": "address"
        },
        {
          "indexed": false,
          "internalType": "uint256",
          "name": "value",
          "type": "uint256"
        }
      ],
      "name": "Transfer",
      "type": "event"
    },
    {
      "inputs": [
        {
          "internalType": "string",
          "name": "codinome",
          "type": "string"
        },
        {
          "internalType": "address",
          "name": "userAddress",
          "type": "address"
        }
      ],
      "name": "addUser",
      "outputs": [],
      "stateMutability": "nonpayable",
      "type": "function"
    },
    {
      "inputs": [
        {
          "internalType": "address",
          "name": "owner",
          "type": "address"
        },
        {
          "internalType": "address",
          "name": "spender",
          "type": "address"
        }
      ],
      "name": "allowance",
      "outputs": [
        {
          "internalType": "uint256",
          "name": "",
          "type": "uint256"
        }
      ],
      "stateMutability": "view",
      "type": "function"
    },
    {
      "inputs": [
        {
          "internalType": "address",
          "name": "spender",
          "type": "address"
        },
        {
          "internalType": "uint256",
          "name": "value",
          "type": "uint256"
        }
      ],
      "name": "approve",
      "outputs": [
        {
          "internalType": "bool",
          "name": "",
          "type": "bool"
        }
      ],
      "stateMutability": "nonpayable",
      "type": "function"
    },
    {
      "inputs": [
        {
          "internalType": "address",
          "name": "account",
          "type": "address"
        }
      ],
      "name": "balanceOf",
      "outputs": [
        {
          "internalType": "uint256",
          "name": "",
          "type": "uint256"
        }
      ],
      "stateMutability": "view",
      "type": "function"
    },
    {
      "inputs": [],
      "name": "decimals",
      "outputs": [
        {
          "internalType": "uint8",
          "name": "",
          "type": "uint8"
        }
      ],
      "stateMutability": "view",
      "type": "function"
    },
    {
      "inputs": [
        {
          "internalType": "address",
          "name": "",
          "type": "address"
        }
      ],
      "name": "enderecoValido",
      "outputs": [
        {
          "internalType": "bool",
          "name": "",
          "type": "bool"
        }
      ],
      "stateMutability": "view",
      "type": "function"
    },
    {
      "inputs": [],
      "name": "getBalances",
      "outputs": [
        {
          "internalType": "string[]",
          "name": "",
          "type": "string[]"
        },
        {
          "internalType": "uint256[]",
          "name": "",
          "type": "uint256[]"
        }
      ],
      "stateMutability": "view",
      "type": "function"
    },
    {
      "inputs": [],
      "name": "isVotingOn",
      "outputs": [
        {
          "internalType": "bool",
          "name": "",
          "type": "bool"
        }
      ],
      "stateMutability": "view",
      "type": "function"
    },
    {
      "inputs": [
        {
          "internalType": "string",
          "name": "codinome",
          "type": "string"
        },
        {
          "internalType": "uint256",
          "name": "quantidade",
          "type": "uint256"
        }
      ],
      "name": "issueToken",
      "outputs": [],
      "stateMutability": "nonpayable",
      "type": "function"
    },
    {
      "inputs": [],
      "name": "name",
      "outputs": [
        {
          "internalType": "string",
          "name": "",
          "type": "string"
        }
      ],
      "stateMutability": "view",
      "type": "function"
    },
    {
      "inputs": [
        {
          "internalType": "string",
          "name": "",
          "type": "string"
        }
      ],
      "name": "nomeParaEndereco",
      "outputs": [
        {
          "internalType": "address",
          "name": "",
          "type": "address"
        }
      ],
      "stateMutability": "view",
      "type": "function"
    },
    {
      "inputs": [
        {
          "internalType": "uint256",
          "name": "",
          "type": "uint256"
        }
      ],
      "name": "nomes",
      "outputs": [
        {
          "internalType": "string",
          "name": "",
          "type": "string"
        }
      ],
      "stateMutability": "view",
      "type": "function"
    },
    {
      "inputs": [],
      "name": "owner",
      "outputs": [
        {
          "internalType": "address",
          "name": "",
          "type": "address"
        }
      ],
      "stateMutability": "view",
      "type": "function"
    },
    {
      "inputs": [],
      "name": "professor",
      "outputs": [
        {
          "internalType": "address",
          "name": "",
          "type": "address"
        }
      ],
      "stateMutability": "view",
      "type": "function"
    },
    {
      "inputs": [],
      "name": "symbol",
      "outputs": [
        {
          "internalType": "string",
          "name": "",
          "type": "string"
        }
      ],
      "stateMutability": "view",
      "type": "function"
    },
    {
      "inputs": [],
      "name": "totalSupply",
      "outputs": [
        {
          "internalType": "uint256",
          "name": "",
          "type": "uint256"
        }
      ],
      "stateMutability": "view",
      "type": "function"
    },
    {
      "inputs": [
        {
          "internalType": "address",
          "name": "to",
          "type": "address"
        },
        {
          "internalType": "uint256",
          "name": "value",
          "type": "uint256"
        }
      ],
      "name": "transfer",
      "outputs": [
        {
          "internalType": "bool",
          "name": "",
          "type": "bool"
        }
      ],
      "stateMutability": "nonpayable",
      "type": "function"
    },
    {
      "inputs": [
        {
          "internalType": "address",
          "name": "from",
          "type": "address"
        },
        {
          "internalType": "address",
          "name": "to",
          "type": "address"
        },
        {
          "internalType": "uint256",
          "name": "value",
          "type": "uint256"
        }
      ],
      "name": "transferFrom",
      "outputs": [
        {
          "internalType": "bool",
          "name": "",
          "type": "bool"
        }
      ],
      "stateMutability": "nonpayable",
      "type": "function"
    },
    {
      "inputs": [
        {
          "internalType": "string",
          "name": "votedNome",
          "type": "string"
        },
        {
          "internalType": "uint256",
          "name": "amount",
          "type": "uint256"
        }
      ],
      "name": "vote",
      "outputs": [],
      "stateMutability": "nonpayable",
      "type": "function"
    },
    {
      "inputs": [
        {
          "internalType": "address",
          "name": "",
          "type": "address"
        },
        {
          "internalType": "string",
          "name": "",
          "type": "string"
        }
      ],
      "name": "votes",
      "outputs": [
        {
          "internalType": "bool",
          "name": "",
          "type": "bool"
        }
      ],
      "stateMutability": "view",
      "type": "function"
    },
    {
      "inputs": [],
      "name": "votingOff",
      "outputs": [],
      "stateMutability": "nonpayable",
      "type": "function"
    },
    {
      "inputs": [],
      "name": "votingOn",
      "outputs": [],
      "stateMutability": "nonpayable",
      "type": "function"
    }
  ],
  "bytecode": "0x608060405273cfc4422426b110c66eca4300622715fffc67cde6600560006101000a81548173ffffffffffffffffffffffffffffffffffffffff021916908373ffffffffffffffffffffffffffffffffffffffff16021790555073502542668af09fa7aea52174b9965a7799343df7600660006101000a81548173ffffffffffffffffffffffffffffffffffffffff021916908373ffffffffffffffffffffffffffffffffffffffff1602179055506001600660146101000a81548160ff02191690831515021790555060405180604001604052806040518060400160405280600e81526020017f4d6172637573202d20417578303100000000000000000000000000000000000081525081526020016040518060400160405280600e81526020017f4d6172637573202d204175783032000000000000000000000000000000000000815250815250600a9060026200015a929190620003bb565b503480156200016857600080fd5b506040518060400160405280600681526020017f547572696e6700000000000000000000000000000000000000000000000000008152506040518060400160405280600381526020017f54524e00000000000000000000000000000000000000000000000000000000008152508160039081620001e6919062000722565b508060049081620001f8919062000722565b50505073affcae52d32b42a21803774c449d7d437178d4af6007604051620002209062000864565b908152602001604051809103902060006101000a81548173ffffffffffffffffffffffffffffffffffffffff021916908373ffffffffffffffffffffffffffffffffffffffff16021790555073aa928a7d6acab9e4f9f2c77b25e72fab5e6d25aa60076040516200029190620008cb565b908152602001604051809103902060006101000a81548173ffffffffffffffffffffffffffffffffffffffff021916908373ffffffffffffffffffffffffffffffffffffffff16021790555060016008600073affcae52d32b42a21803774c449d7d437178d4af73ffffffffffffffffffffffffffffffffffffffff1673ffffffffffffffffffffffffffffffffffffffff16815260200190815260200160002060006101000a81548160ff02191690831515021790555060016008600073aa928a7d6acab9e4f9f2c77b25e72fab5e6d25aa73ffffffffffffffffffffffffffffffffffffffff1673ffffffffffffffffffffffffffffffffffffffff16815260200190815260200160002060006101000a81548160ff021916908315150217905550620008e2565b82805482825590600052602060002090810192821562000408579160200282015b8281111562000407578251829081620003f6919062000722565b5091602001919060010190620003dc565b5b5090506200041791906200041b565b5090565b5b808211156200043f576000818162000435919062000443565b506001016200041c565b5090565b508054620004519062000511565b6000825580601f1062000465575062000486565b601f01602090049060005260206000209081019062000485919062000489565b5b50565b5b80821115620004a45760008160009055506001016200048a565b5090565b600081519050919050565b7f4e487b7100000000000000000000000000000000000000000000000000000000600052604160045260246000fd5b7f4e487b7100000000000000000000000000000000000000000000000000000000600052602260045260246000fd5b600060028204905060018216806200052a57607f821691505b60208210810362000540576200053f620004e2565b5b50919050565b60008190508160005260206000209050919050565b60006020601f8301049050919050565b600082821b905092915050565b600060088302620005aa7fffffffffffffffffffffffffffffffffffffffffffffffffffffffffffffffff826200056b565b620005b686836200056b565b95508019841693508086168417925050509392505050565b6000819050919050565b6000819050919050565b600062000603620005fd620005f784620005ce565b620005d8565b620005ce565b9050919050565b6000819050919050565b6200061f83620005e2565b620006376200062e826200060a565b84845462000578565b825550505050565b600090565b6200064e6200063f565b6200065b81848462000614565b505050565b5b8181101562000683576200067760008262000644565b60018101905062000661565b5050565b601f821115620006d2576200069c8162000546565b620006a7846200055b565b81016020851015620006b7578190505b620006cf620006c6856200055b565b83018262000660565b50505b505050565b600082821c905092915050565b6000620006f760001984600802620006d7565b1980831691505092915050565b6000620007128383620006e4565b9150826002028217905092915050565b6200072d82620004a8565b67ffffffffffffffff811115620007495762000748620004b3565b5b62000755825462000511565b6200076282828562000687565b600060209050601f8311600181146200079a576000841562000785578287015190505b62000791858262000704565b86555062000801565b601f198416620007aa8662000546565b60005b82811015620007d457848901518255600182019150602085019450602081019050620007ad565b86831015620007f45784890151620007f0601f891682620006e4565b8355505b6001600288020188555050505b505050505050565b600081905092915050565b7f4d6172637573202d204175783031000000000000000000000000000000000000600082015250565b60006200084c600e8362000809565b9150620008598262000814565b600e82019050919050565b600062000871826200083d565b9150819050919050565b7f4d6172637573202d204175783032000000000000000000000000000000000000600082015250565b6000620008b3600e8362000809565b9150620008c0826200087b565b600e82019050919050565b6000620008d882620008a4565b9150819050919050565b612bf880620008f26000396000f3fe608060405234801561001057600080fd5b50600436106101415760003560e01c806370a08231116100b8578063a63858031161007c578063a638580314610369578063a9059cbb14610385578063b06060ed146103b5578063c683e0f4146103e5578063d1817c2c14610401578063dd62ed3e1461041f57610141565b806370a08231146102b1578063864a0d0a146102e15780638da5cb5b146102fd57806395d89b411461031b57806397a9408d1461033957610141565b806323b872dd1161010a57806323b872dd146101db578063313ce5671461020b5780633de87871146102295780635113940d1461025957806359d8b2bc1461027757806360a3ae06146102a757610141565b8062113e081461014657806306fdde0314610165578063095ea7b31461018357806318160ddd146101b357806320949bb4146101d1575b600080fd5b61014e61044f565b60405161015c929190611ed2565b60405180910390f35b61016d61066f565b60405161017a9190611f53565b60405180910390f35b61019d60048036038101906101989190612013565b610701565b6040516101aa919061206e565b60405180910390f35b6101bb610724565b6040516101c89190612098565b60405180910390f35b6101d961072e565b005b6101f560048036038101906101f091906120b3565b610833565b604051610202919061206e565b60405180910390f35b610213610862565b6040516102209190612122565b60405180910390f35b610243600480360381019061023e9190612272565b61086b565b604051610250919061206e565b60405180910390f35b6102616108b0565b60405161026e91906122dd565b60405180910390f35b610291600480360381019061028c91906122f8565b6108d6565b60405161029e9190611f53565b60405180910390f35b6102af610982565b005b6102cb60048036038101906102c69190612325565b610a87565b6040516102d89190612098565b60405180910390f35b6102fb60048036038101906102f691906123b2565b610acf565b005b610305610e1e565b60405161031291906122dd565b60405180910390f35b610323610e44565b6040516103309190611f53565b60405180910390f35b610353600480360381019061034e9190612325565b610ed6565b604051610360919061206e565b60405180910390f35b610383600480360381019061037e9190612412565b610ef6565b005b61039f600480360381019061039a9190612013565b6113ab565b6040516103ac919061206e565b60405180910390f35b6103cf60048036038101906103ca9190612472565b6113ce565b6040516103dc91906122dd565b60405180910390f35b6103ff60048036038101906103fa9190612412565b611417565b005b6104096115fd565b604051610416919061206e565b60405180910390f35b610439600480360381019061043491906124bb565b611610565b6040516104469190612098565b60405180910390f35b6060806000600a80549050905060008167ffffffffffffffff81111561047857610477612147565b5b6040519080825280602002602001820160405280156104ab57816020015b60608152602001906001900390816104965790505b50905060008267ffffffffffffffff8111156104ca576104c9612147565b5b6040519080825280602002602001820160405280156104f85781602001602082028036833780820191505090505b50905060005b8381101561066157600a818154811061051a576105196124fb565b5b90600052602060002001805461052f90612559565b80601f016020809104026020016040519081016040528092919081815260200182805461055b90612559565b80156105a85780601f1061057d576101008083540402835291602001916105a8565b820191906000526020600020905b81548152906001019060200180831161058b57829003601f168201915b50505050508382815181106105c0576105bf6124fb565b5b602002602001018190525061062f6007600a83815481106105e4576105e36124fb565b5b906000526020600020016040516105fb919061262d565b908152602001604051809103902060009054906101000a900473ffffffffffffffffffffffffffffffffffffffff16610a87565b828281518110610642576106416124fb565b5b602002602001018181525050808061065990612673565b9150506104fe565b508181945094505050509091565b60606003805461067e90612559565b80601f01602080910402602001604051908101604052809291908181526020018280546106aa90612559565b80156106f75780601f106106cc576101008083540402835291602001916106f7565b820191906000526020600020905b8154815290600101906020018083116106da57829003601f168201915b5050505050905090565b60008061070c611697565b905061071981858561169f565b600191505092915050565b6000600254905090565b600560009054906101000a900473ffffffffffffffffffffffffffffffffffffffff1673ffffffffffffffffffffffffffffffffffffffff163373ffffffffffffffffffffffffffffffffffffffff1614806107d75750600660009054906101000a900473ffffffffffffffffffffffffffffffffffffffff1673ffffffffffffffffffffffffffffffffffffffff163373ffffffffffffffffffffffffffffffffffffffff16145b610816576040517f08c379a000000000000000000000000000000000000000000000000000000000815260040161080d9061272d565b60405180910390fd5b6001600660146101000a81548160ff021916908315150217905550565b60008061083e611697565b905061084b8582856116b1565b610856858585611746565b60019150509392505050565b60006012905090565b6009602052816000526040600020818051602081018201805184825260208301602085012081835280955050505050506000915091509054906101000a900460ff1681565b600660009054906101000a900473ffffffffffffffffffffffffffffffffffffffff1681565b600a81815481106108e657600080fd5b90600052602060002001600091509050805461090190612559565b80601f016020809104026020016040519081016040528092919081815260200182805461092d90612559565b801561097a5780601f1061094f5761010080835404028352916020019161097a565b820191906000526020600020905b81548152906001019060200180831161095d57829003601f168201915b505050505081565b600560009054906101000a900473ffffffffffffffffffffffffffffffffffffffff1673ffffffffffffffffffffffffffffffffffffffff163373ffffffffffffffffffffffffffffffffffffffff161480610a2b5750600660009054906101000a900473ffffffffffffffffffffffffffffffffffffffff1673ffffffffffffffffffffffffffffffffffffffff163373ffffffffffffffffffffffffffffffffffffffff16145b610a6a576040517f08c379a0000000000000000000000000000000000000000000000000000000008152600401610a619061272d565b60405180910390fd5b6000600660146101000a81548160ff021916908315150217905550565b60008060008373ffffffffffffffffffffffffffffffffffffffff1673ffffffffffffffffffffffffffffffffffffffff168152602001908152602001600020549050919050565b600560009054906101000a900473ffffffffffffffffffffffffffffffffffffffff1673ffffffffffffffffffffffffffffffffffffffff163373ffffffffffffffffffffffffffffffffffffffff161480610b785750600660009054906101000a900473ffffffffffffffffffffffffffffffffffffffff1673ffffffffffffffffffffffffffffffffffffffff163373ffffffffffffffffffffffffffffffffffffffff16145b610bb7576040517f08c379a0000000000000000000000000000000000000000000000000000000008152600401610bae9061272d565b60405180910390fd5b600073ffffffffffffffffffffffffffffffffffffffff168173ffffffffffffffffffffffffffffffffffffffff1603610c26576040517f08c379a0000000000000000000000000000000000000000000000000000000008152600401610c1d90612799565b60405180910390fd5b600073ffffffffffffffffffffffffffffffffffffffff1660078484604051610c509291906127de565b908152602001604051809103902060009054906101000a900473ffffffffffffffffffffffffffffffffffffffff1673ffffffffffffffffffffffffffffffffffffffff1614610cd5576040517f08c379a0000000000000000000000000000000000000000000000000000000008152600401610ccc90612843565b60405180910390fd5b600860008273ffffffffffffffffffffffffffffffffffffffff1673ffffffffffffffffffffffffffffffffffffffff16815260200190815260200160002060009054906101000a900460ff1615610d62576040517f08c379a0000000000000000000000000000000000000000000000000000000008152600401610d59906128af565b60405180910390fd5b8060078484604051610d759291906127de565b908152602001604051809103902060006101000a81548173ffffffffffffffffffffffffffffffffffffffff021916908373ffffffffffffffffffffffffffffffffffffffff1602179055506001600860008373ffffffffffffffffffffffffffffffffffffffff1673ffffffffffffffffffffffffffffffffffffffff16815260200190815260200160002060006101000a81548160ff021916908315150217905550505050565b600560009054906101000a900473ffffffffffffffffffffffffffffffffffffffff1681565b606060048054610e5390612559565b80601f0160208091040260200160405190810160405280929190818152602001828054610e7f90612559565b8015610ecc5780601f10610ea157610100808354040283529160200191610ecc565b820191906000526020600020905b815481529060010190602001808311610eaf57829003601f168201915b5050505050905090565b60086020528060005260406000206000915054906101000a900460ff1681565b600860003373ffffffffffffffffffffffffffffffffffffffff1673ffffffffffffffffffffffffffffffffffffffff16815260200190815260200160002060009054906101000a900460ff1680610f9b5750600560009054906101000a900473ffffffffffffffffffffffffffffffffffffffff1673ffffffffffffffffffffffffffffffffffffffff163373ffffffffffffffffffffffffffffffffffffffff16145b80610ff35750600660009054906101000a900473ffffffffffffffffffffffffffffffffffffffff1673ffffffffffffffffffffffffffffffffffffffff163373ffffffffffffffffffffffffffffffffffffffff16145b611032576040517f08c379a00000000000000000000000000000000000000000000000000000000081526004016110299061291b565b60405180910390fd5b600660149054906101000a900460ff16611081576040517f08c379a000000000000000000000000000000000000000000000000000000000815260040161107890612987565b60405180910390fd5b600073ffffffffffffffffffffffffffffffffffffffff16600784846040516110ab9291906127de565b908152602001604051809103902060009054906101000a900473ffffffffffffffffffffffffffffffffffffffff1673ffffffffffffffffffffffffffffffffffffffff1603611130576040517f08c379a0000000000000000000000000000000000000000000000000000000008152600401611127906129f3565b60405180910390fd5b3373ffffffffffffffffffffffffffffffffffffffff16600784846040516111599291906127de565b908152602001604051809103902060009054906101000a900473ffffffffffffffffffffffffffffffffffffffff1673ffffffffffffffffffffffffffffffffffffffff16036111de576040517f08c379a00000000000000000000000000000000000000000000000000000000081526004016111d590612a5f565b60405180910390fd5b600960003373ffffffffffffffffffffffffffffffffffffffff1673ffffffffffffffffffffffffffffffffffffffff168152602001908152602001600020838360405161122d9291906127de565b908152602001604051809103902060009054906101000a900460ff1615611289576040517f08c379a000000000000000000000000000000000000000000000000000000000815260040161128090612acb565b60405180910390fd5b671bc16d674ec800008111156112d4576040517f08c379a00000000000000000000000000000000000000000000000000000000081526004016112cb90612b37565b60405180910390fd5b6001600960003373ffffffffffffffffffffffffffffffffffffffff1673ffffffffffffffffffffffffffffffffffffffff16815260200190815260200160002084846040516113259291906127de565b908152602001604051809103902060006101000a81548160ff0219169083151502179055506113946007848460405161135f9291906127de565b908152602001604051809103902060009054906101000a900473ffffffffffffffffffffffffffffffffffffffff168261183a565b6113a6336702c68af0bb14000061183a565b505050565b6000806113b6611697565b90506113c3818585611746565b600191505092915050565b6007818051602081018201805184825260208301602085012081835280955050505050506000915054906101000a900473ffffffffffffffffffffffffffffffffffffffff1681565b600560009054906101000a900473ffffffffffffffffffffffffffffffffffffffff1673ffffffffffffffffffffffffffffffffffffffff163373ffffffffffffffffffffffffffffffffffffffff1614806114c05750600660009054906101000a900473ffffffffffffffffffffffffffffffffffffffff1673ffffffffffffffffffffffffffffffffffffffff163373ffffffffffffffffffffffffffffffffffffffff16145b6114ff576040517f08c379a00000000000000000000000000000000000000000000000000000000081526004016114f69061272d565b60405180910390fd5b600073ffffffffffffffffffffffffffffffffffffffff16600784846040516115299291906127de565b908152602001604051809103902060009054906101000a900473ffffffffffffffffffffffffffffffffffffffff1673ffffffffffffffffffffffffffffffffffffffff16036115ae576040517f08c379a00000000000000000000000000000000000000000000000000000000081526004016115a5906129f3565b60405180910390fd5b6115f8600784846040516115c39291906127de565b908152602001604051809103902060009054906101000a900473ffffffffffffffffffffffffffffffffffffffff168261183a565b505050565b600660149054906101000a900460ff1681565b6000600160008473ffffffffffffffffffffffffffffffffffffffff1673ffffffffffffffffffffffffffffffffffffffff16815260200190815260200160002060008373ffffffffffffffffffffffffffffffffffffffff1673ffffffffffffffffffffffffffffffffffffffff16815260200190815260200160002054905092915050565b600033905090565b6116ac83838360016118bc565b505050565b60006116bd8484611610565b90507fffffffffffffffffffffffffffffffffffffffffffffffffffffffffffffffff8110156117405781811015611730578281836040517ffb8f41b200000000000000000000000000000000000000000000000000000000815260040161172793929190612b57565b60405180910390fd5b61173f848484840360006118bc565b5b50505050565b600073ffffffffffffffffffffffffffffffffffffffff168373ffffffffffffffffffffffffffffffffffffffff16036117b85760006040517f96c6fd1e0000000000000000000000000000000000000000000000000000000081526004016117af91906122dd565b60405180910390fd5b600073ffffffffffffffffffffffffffffffffffffffff168273ffffffffffffffffffffffffffffffffffffffff160361182a5760006040517fec442f0500000000000000000000000000000000000000000000000000000000815260040161182191906122dd565b60405180910390fd5b611835838383611a93565b505050565b600073ffffffffffffffffffffffffffffffffffffffff168273ffffffffffffffffffffffffffffffffffffffff16036118ac5760006040517fec442f050000000000000000000000000000000000000000000000000000000081526004016118a391906122dd565b60405180910390fd5b6118b860008383611a93565b5050565b600073ffffffffffffffffffffffffffffffffffffffff168473ffffffffffffffffffffffffffffffffffffffff160361192e5760006040517fe602df0500000000000000000000000000000000000000000000000000000000815260040161192591906122dd565b60405180910390fd5b600073ffffffffffffffffffffffffffffffffffffffff168373ffffffffffffffffffffffffffffffffffffffff16036119a05760006040517f94280d6200000000000000000000000000000000000000000000000000000000815260040161199791906122dd565b60405180910390fd5b81600160008673ffffffffffffffffffffffffffffffffffffffff1673ffffffffffffffffffffffffffffffffffffffff16815260200190815260200160002060008573ffffffffffffffffffffffffffffffffffffffff1673ffffffffffffffffffffffffffffffffffffffff168152602001908152602001600020819055508015611a8d578273ffffffffffffffffffffffffffffffffffffffff168473ffffffffffffffffffffffffffffffffffffffff167f8c5be1e5ebec7d5bd14f71427d1e84f3dd0314c0f7b2291e5b200ac8c7c3b92584604051611a849190612098565b60405180910390a35b50505050565b600073ffffffffffffffffffffffffffffffffffffffff168373ffffffffffffffffffffffffffffffffffffffff1603611ae5578060026000828254611ad99190612b8e565b92505081905550611bb8565b60008060008573ffffffffffffffffffffffffffffffffffffffff1673ffffffffffffffffffffffffffffffffffffffff16815260200190815260200160002054905081811015611b71578381836040517fe450d38c000000000000000000000000000000000000000000000000000000008152600401611b6893929190612b57565b60405180910390fd5b8181036000808673ffffffffffffffffffffffffffffffffffffffff1673ffffffffffffffffffffffffffffffffffffffff16815260200190815260200160002081905550505b600073ffffffffffffffffffffffffffffffffffffffff168273ffffffffffffffffffffffffffffffffffffffff1603611c015780600260008282540392505081905550611c4e565b806000808473ffffffffffffffffffffffffffffffffffffffff1673ffffffffffffffffffffffffffffffffffffffff168152602001908152602001600020600082825401925050819055505b8173ffffffffffffffffffffffffffffffffffffffff168373ffffffffffffffffffffffffffffffffffffffff167fddf252ad1be2c89b69c2b068fc378daa952ba7f163c4a11628f55a4df523b3ef83604051611cab9190612098565b60405180910390a3505050565b600081519050919050565b600082825260208201905092915050565b6000819050602082019050919050565b600081519050919050565b600082825260208201905092915050565b60005b83811015611d1e578082015181840152602081019050611d03565b60008484015250505050565b6000601f19601f8301169050919050565b6000611d4682611ce4565b611d508185611cef565b9350611d60818560208601611d00565b611d6981611d2a565b840191505092915050565b6000611d808383611d3b565b905092915050565b6000602082019050919050565b6000611da082611cb8565b611daa8185611cc3565b935083602082028501611dbc85611cd4565b8060005b85811015611df85784840389528151611dd98582611d74565b9450611de483611d88565b925060208a01995050600181019050611dc0565b50829750879550505050505092915050565b600081519050919050565b600082825260208201905092915050565b6000819050602082019050919050565b6000819050919050565b611e4981611e36565b82525050565b6000611e5b8383611e40565b60208301905092915050565b6000602082019050919050565b6000611e7f82611e0a565b611e898185611e15565b9350611e9483611e26565b8060005b83811015611ec5578151611eac8882611e4f565b9750611eb783611e67565b925050600181019050611e98565b5085935050505092915050565b60006040820190508181036000830152611eec8185611d95565b90508181036020830152611f008184611e74565b90509392505050565b600082825260208201905092915050565b6000611f2582611ce4565b611f2f8185611f09565b9350611f3f818560208601611d00565b611f4881611d2a565b840191505092915050565b60006020820190508181036000830152611f6d8184611f1a565b905092915050565b6000604051905090565b600080fd5b600080fd5b600073ffffffffffffffffffffffffffffffffffffffff82169050919050565b6000611fb482611f89565b9050919050565b611fc481611fa9565b8114611fcf57600080fd5b50565b600081359050611fe181611fbb565b92915050565b611ff081611e36565b8114611ffb57600080fd5b50565b60008135905061200d81611fe7565b92915050565b6000806040838503121561202a57612029611f7f565b5b600061203885828601611fd2565b925050602061204985828601611ffe565b9150509250929050565b60008115159050919050565b61206881612053565b82525050565b6000602082019050612083600083018461205f565b92915050565b61209281611e36565b82525050565b60006020820190506120ad6000830184612089565b92915050565b6000806000606084860312156120cc576120cb611f7f565b5b60006120da86828701611fd2565b93505060206120eb86828701611fd2565b92505060406120fc86828701611ffe565b9150509250925092565b600060ff82169050919050565b61211c81612106565b82525050565b60006020820190506121376000830184612113565b92915050565b600080fd5b600080fd5b7f4e487b7100000000000000000000000000000000000000000000000000000000600052604160045260246000fd5b61217f82611d2a565b810181811067ffffffffffffffff8211171561219e5761219d612147565b5b80604052505050565b60006121b1611f75565b90506121bd8282612176565b919050565b600067ffffffffffffffff8211156121dd576121dc612147565b5b6121e682611d2a565b9050602081019050919050565b82818337600083830152505050565b6000612215612210846121c2565b6121a7565b90508281526020810184848401111561223157612230612142565b5b61223c8482856121f3565b509392505050565b600082601f8301126122595761225861213d565b5b8135612269848260208601612202565b91505092915050565b6000806040838503121561228957612288611f7f565b5b600061229785828601611fd2565b925050602083013567ffffffffffffffff8111156122b8576122b7611f84565b5b6122c485828601612244565b9150509250929050565b6122d781611fa9565b82525050565b60006020820190506122f260008301846122ce565b92915050565b60006020828403121561230e5761230d611f7f565b5b600061231c84828501611ffe565b91505092915050565b60006020828403121561233b5761233a611f7f565b5b600061234984828501611fd2565b91505092915050565b600080fd5b600080fd5b60008083601f8401126123725761237161213d565b5b8235905067ffffffffffffffff81111561238f5761238e612352565b5b6020830191508360018202830111156123ab576123aa612357565b5b9250929050565b6000806000604084860312156123cb576123ca611f7f565b5b600084013567ffffffffffffffff8111156123e9576123e8611f84565b5b6123f58682870161235c565b9350935050602061240886828701611fd2565b9150509250925092565b60008060006040848603121561242b5761242a611f7f565b5b600084013567ffffffffffffffff81111561244957612448611f84565b5b6124558682870161235c565b9350935050602061246886828701611ffe565b9150509250925092565b60006020828403121561248857612487611f7f565b5b600082013567ffffffffffffffff8111156124a6576124a5611f84565b5b6124b284828501612244565b91505092915050565b600080604083850312156124d2576124d1611f7f565b5b60006124e085828601611fd2565b92505060206124f185828601611fd2565b9150509250929050565b7f4e487b7100000000000000000000000000000000000000000000000000000000600052603260045260246000fd5b7f4e487b7100000000000000000000000000000000000000000000000000000000600052602260045260246000fd5b6000600282049050600182168061257157607f821691505b6020821081036125845761258361252a565b5b50919050565b600081905092915050565b60008190508160005260206000209050919050565b600081546125b781612559565b6125c1818661258a565b945060018216600081146125dc57600181146125f157612624565b60ff1983168652811515820286019350612624565b6125fa85612595565b60005b8381101561261c578154818901526001820191506020810190506125fd565b838801955050505b50505092915050565b600061263982846125aa565b915081905092915050565b7f4e487b7100000000000000000000000000000000000000000000000000000000600052601160045260246000fd5b600061267e82611e36565b91507fffffffffffffffffffffffffffffffffffffffffffffffffffffffffffffffff82036126b0576126af612644565b5b600182019050919050565b7f4170656e6173206f206f776e6572206f7520612070726f666573736f7261207060008201527f6f64656d20657865637574617200000000000000000000000000000000000000602082015250565b6000612717602d83611f09565b9150612722826126bb565b604082019050919050565b600060208201905081810360008301526127468161270a565b9050919050565b7f456e64657265636f20696e76616c69646f000000000000000000000000000000600082015250565b6000612783601183611f09565b915061278e8261274d565b602082019050919050565b600060208201905081810360008301526127b281612776565b9050919050565b60006127c5838561258a565b93506127d28385846121f3565b82840190509392505050565b60006127eb8284866127b9565b91508190509392505050565b7f4e6f6d65206a61206361646173747261646f0000000000000000000000000000600082015250565b600061282d601283611f09565b9150612838826127f7565b602082019050919050565b6000602082019050818103600083015261285c81612820565b9050919050565b7f456e64657265636f206a61206361646173747261646f00000000000000000000600082015250565b6000612899601683611f09565b91506128a482612863565b602082019050919050565b600060208201905081810360008301526128c88161288c565b9050919050565b7f5573756172696f206e616f206175746f72697a61646f00000000000000000000600082015250565b6000612905601683611f09565b9150612910826128cf565b602082019050919050565b60006020820190508181036000830152612934816128f8565b9050919050565b7f566f746163616f204f6666000000000000000000000000000000000000000000600082015250565b6000612971600b83611f09565b915061297c8261293b565b602082019050919050565b600060208201905081810360008301526129a081612964565b9050919050565b7f416c756e6f206e616f20656e636f6e747261646f000000000000000000000000600082015250565b60006129dd601483611f09565b91506129e8826129a7565b602082019050919050565b60006020820190508181036000830152612a0c816129d0565b9050919050565b7f50726f696269646f20766f74617220656d207369206d65736d6f000000000000600082015250565b6000612a49601a83611f09565b9150612a5482612a13565b602082019050919050565b60006020820190508181036000830152612a7881612a3c565b9050919050565b7f4a6120766f746f75206e6573736520616c756e6f000000000000000000000000600082015250565b6000612ab5601483611f09565b9150612ac082612a7f565b602082019050919050565b60006020820190508181036000830152612ae481612aa8565b9050919050565b7f4c696d697465206465207361547572696e6720756c7472617061737361646f00600082015250565b6000612b21601f83611f09565b9150612b2c82612aeb565b602082019050919050565b60006020820190508181036000830152612b5081612b14565b9050919050565b6000606082019050612b6c60008301866122ce565b612b796020830185612089565b612b866040830184612089565b949350505050565b6000612b9982611e36565b9150612ba483611e36565b9250828201905080821115612bbc57612bbb612644565b5b9291505056fea2646970667358221220ce8650d898e904cf7bec397dbb0642beb927c64c5cef5a911fd7121acfbc8f4a64736f6c63430008140033",
  "linkReferences": {},
  "deployedLinkReferences": {}
}